:100000000C942A000C943F000C943F000C943F0089
:100010000C943F000C943F000C943F000C943F0064
:100020000C943F000C943F000C943F000C943F0054
:100030000C943F000C943F000C943F000C943F0044
:100040000C943F000C943F000C943F000C943F0034
:100050000C943F0011241FBECFE5D8E0DEBFCDBF1A
:1000600010E0A0E6B0E0E2E3FDE002C005900D92F2
:10007000A43DB107D9F70E9441000C9497060C9457
:100080000000BF92CF92DF92EF92FF920F931F93E7
:10009000CF93DF9300D000D0CDB7DEB781E392E3FA
:1000A0009A83898383E394E39C838B830E945B011F
:1000B0000E94A1030E94F80263E075E081E00E94C3
:1000C000E9000E9441038823E1F30E94E4020F2E1D
:1000D000F3E0BF2EF02D6E0185E0C80ED11C61E06B
:1000E00081E00E94AF0284E990E00E94990161E002
:1000F00082E00E94AF02FE0131967F0100E00E9483
:100100004103182F8823D9F38AE20E941101F701D5
:1001100081917F01181301C00F5FCE14DF0479F7BE
:100120000430B1F40E94E40261E081E00E94AF0279
:1001300084EA90E00E94990160E472E48FE090E02C
:100140000E94C50563E075E081E00E94EF0031C0C8
:100150000E94E40261E081E00E94AF028CEA90E03C
:100160000E949901F1E0BF1211C061E082E00E949B
:10017000AF028BEB90E00E9499010E94AC0360E813
:1001800074E88EE190E00E94C50513C061E082E052
:100190000E94AF0289EC90E00E94990160E874E847
:1001A0008EE190E00E94C5050E94E402BA94B1106D
:1001B00096CF80E090E00F900F900F900F90DF911E
:1001C000CF911F910F91FF90EF90DF90CF90BF9054
:1001D0000895862F672F41E00E940F040895962FFF
:1001E000813031F441E0672F892F0E94AA040895DD
:1001F000811105C040E0672F892F0E94AA0408954D
:10020000962F811106C041E0672F892F0E94AA0412
:100210000895813029F440E0672F892F0E94AA04B5
:100220000895682F82E00E94EF0340E061E083E0E0
:100230000E94AA0441E060E083E00E94AA0441E039
:1002400062E083E00E94AA0468EE73E080E090E040
:100250000E94C50540E062E083E00E94AA0468EEC7
:1002600073E080E090E00E94C5050895682F82E069
:100270000E94EF0340E061E083E00E94AA0440E0B6
:1002800060E083E00E94AA0441E062E083E00E9413
:10029000AA0468EE73E080E090E00E94C50540E0AB
:1002A00062E083E00E94AA0468EE73E080E090E0E0
:1002B0000E94C50508956FEF82E00E94CF0341E0E0
:1002C00061E083E00E940F0441E060E083E00E946F
:1002D0000F0441E062E083E00E940F0460E573ECEC
:1002E00080E090E00E94C50588E30E94360168EE38
:1002F00073E080E090E00E94C5058EE00E94360128
:1003000068EE73E080E090E00E94C50581E00E9405
:10031000360168EB7BE080E090E00E94C50582E05A
:100320000E94360168EB7BE080E090E00E94C5050A
:1003300008950F931F93CF93FC018081882359F078
:100340008F01C0E00E941101CF5FF801EC0FF11D99
:1003500080818111F7CFCF911F910F9108952F9236
:100360003F924F925F926F927F928F929F92AF9245
:10037000BF92CF92DF92EF92FF920F931F93CF9392
:10038000DF93CDB7DEB728970FB6F894DEBF0FBE68
:10039000CDBF29833A834B835C836D837E83382E64
:1003A000292EA0E00E948B0621F480E30E94110117
:1003B000BDC044244394512C612C712C812C912C70
:1003C00018861F82242D352D462D572D682D792D09
:1003D00088859F8101E00E946906822E932E4887BE
:1003E0005F83B62FA72FF82FE92F02E00E9469063E
:1003F000A22EB32EC42ED52EE62EF72E082F192F9F
:10040000282D392D48855F816B2F7A2F8F2F9E2FB6
:100410000E94820628873F83942E852E762E672E93
:10042000582E492E0F2EFAE0AF2EF02DB12CC12CF4
:10043000D12CE12CF12C00E010E029813A814B8194
:100440005C816D817E81832D922D0E940A06A88495
:10045000BF80C92CD82CE72CF62C052D142D0E941A
:100460008206422E532E642E752E862E972E888756
:100470009F830F2EFAE0AF2EF02DB12CC12CD12C82
:10048000E12CF12C00E010E029813A814B815C8164
:100490006D817E81832D922D0E940C0629833A83E3
:1004A0004B835C836D837E83382E292EA0E00E94CF
:1004B0008B0609F087CF242D352D462D572D682D1D
:1004C000792D88859F81A1E00E948B0679F10F2EFE
:1004D000FAE0AF2EF02DB12CC12CD12CE12CF12C57
:1004E00000E010E0242D352D462D572D682D792D57
:1004F00088859F810E940A0680E3820F0E94110175
:10050000242D352D462D572D682D792D88859F81D9
:100510000E940C06422E532E642E752E862E972E88
:1005200088879F83A1E00E948B0689F628960FB6E4
:10053000F894DEBF0FBECDBFDF91CF911F910F9119
:10054000FF90EF90DF90CF90BF90AF909F908F90F3
:100550007F906F905F904F903F902F9008958130E3
:1005600029F48FE7860F0E9436010895823021F426
:100570008FEB860F0E9436010895EF92FF920F9342
:100580001F93CF93DF93F82EE62E80E40E9436016E
:10059000C0E6D0E008E810E089910E9411010C1734
:1005A0001D07D1F76E2D8F2D0E94AF02C0E08C2F5A
:1005B0000E941101CF5FC530D1F7DF91CF911F911C
:1005C0000F91FF90EF90089581E00E94360168EE50
:1005D00073E080E090E00E94C505089588E00E94E5
:1005E000360168EE73E080E090E00E94C505089552
:1005F0000E94BD0540E060E082E00E940F0440E000
:1006000061E082E00E940F0440E062E082E00E942C
:100610000F0440E063E082E00E940F0441E060E0EC
:1006200082E00E94AA0441E061E082E00E94AA0404
:1006300041E062E082E00E94AA0441E063E082E0DF
:100640000E94AA0441E064E082E00E940F0441E0BD
:1006500065E082E00E940F0441E066E082E00E94D3
:100660000F0441E064E082E00E94AA0441E065E0FA
:1006700082E00E94AA0441E066E082E00E94AA04AF
:100680000895DF92EF92FF920F931F93CF93DF9322
:100690001F92CDB7DEB781E08983E12CF12CD12CFC
:1006A00004E040E0602F82E00E94AA0410E0AE0166
:1006B0004F5F5F4F612F82E00E9473058981811136
:1006C00027C060E573EC80E090E00E94C505AE01B4
:1006D0004F5F5F4F612F82E00E9473058981811116
:1006E0001AC0812F90E0FC01EE0FFF1FE80FF91FE9
:1006F000E857FF4FEE0DFF1DD080AE014F5F5F4FFB
:10070000612F82E00E94730589818823B1F303C0C1
:100710001F5F143061F641E0602F82E00E94AA045E
:100720000F5F8FEFE81AF80A073009F0BACF8D2D66
:100730000F90DF91CF911F910F91FF90EF90DF907D
:10074000089541E064E083E00E940F0440E064E02B
:1007500083E00E94AA04089541E064E083E00E94DF
:10076000AA04089540E064E083E00E94AA0408958A
:1007700041E064E083E00E94AA0460E472E48FE058
:1007800090E00E94C50540E064E083E00E94AA0476
:1007900060E472E48FE090E00E94C5050895843023
:1007A000C0F4813051F028F0823059F0833069F084
:1007B00013C06ABB81E090E0089567BB81E090E0E0
:1007C000089564BB81E090E0089561BB81E090E012
:1007D000089580E090E0089580E090E008958430EE
:1007E000C0F4813051F028F0823059F0833069F044
:1007F00013C06BBB81E090E0089568BB81E090E09E
:10080000089565BB81E090E0089562BB81E090E0CF
:10081000089580E090E0089580E090E008958430AD
:1008200008F086C0813039F138F0823009F442C0D6
:10083000833009F45EC07FC0413069F42AB381E09F
:1008400090E002C0880F991F6A95E2F7822B8ABB5D
:1008500081E090E00895411171C02AB381E090E0F9
:1008600002C0880F991F6A95E2F7809582238ABBA0
:1008700081E090E00895413069F427B381E090E091
:1008800002C0880F991F6A95E2F7822B87BB81E02F
:1008900090E00895411155C027B381E090E002C077
:1008A000880F991F6A95E2F78095822387BB81E0C4
:1008B00090E00895413069F424B381E090E002C0F3
:1008C000880F991F6A95E2F7822B84BB81E090E044
:1008D0000895411139C024B381E090E002C0880F2F
:1008E000991F6A95E2F78095822384BB81E090E0AE
:1008F0000895413069F421B381E090E002C0880F8F
:10090000991F6A95E2F7822B81BB81E090E0089500
:1009100041111DC021B381E090E002C0880F991FF2
:100920006A95E2F78095822381BB81E090E008958B
:1009300080E090E0089580E090E0089580E090E00D
:10094000089580E090E0089580E090E0089580E0D0
:1009500090E00895843008F089C0683008F089C0BC
:10096000813039F138F0823009F442C0833009F423
:100970005EC082C0413069F42BB381E090E002C0D8
:10098000880F991F6A95E2F7822B8BBB81E090E07C
:100990000895411174C02BB381E090E002C0880F2C
:1009A000991F6A95E2F7809582238BBB81E090E0E6
:1009B0000895413069F428B381E090E002C0880FC7
:1009C000991F6A95E2F7822B88BB81E090E0089539
:1009D000411158C028B381E090E002C0880F991FF0
:1009E0006A95E2F78095822388BB81E090E00895C4
:1009F000413069F425B381E090E002C0880F991F6F
:100A00006A95E2F7822B85BB81E090E00895411161
:100A10003CC025B381E090E002C0880F991F6A9521
:100A2000E2F78095822385BB81E090E00895413014
:100A300069F422B381E090E002C0880F991F6A95A3
:100A4000E2F7822B82BB81E090E00895411120C043
:100A500022B381E090E002C0880F991F6A95E2F707
:100A60008095822382BB81E090E0089580E090E051
:100A7000089580E090E0089580E090E0089580E09F
:100A800090E0089580E090E0089580E090E008957F
:100A900080E090E00895843000F5813061F028F026
:100AA000823079F0833099F01BC089B3FB018083D9
:100AB00081E090E0089586B3FB01808381E090E0BF
:100AC000089583B3FB01808381E090E0089580B3B3
:100AD000FB01808381E090E0089580E090E008953C
:100AE00080E090E008958430F8F5683008F03FC069
:100AF000813099F028F08230E9F0833041F13AC03A
:100B000089B390E002C0959587956A95E2F7817068
:100B1000FA01808381E090E0089586B390E002C0FE
:100B2000959587956A95E2F78170FA01808381E057
:100B300090E0089583B390E002C0959587956A95FB
:100B4000E2F78170FA01808381E090E0089580B33C
:100B500090E002C0959587956A95E2F78170FA0159
:100B6000808381E090E0089580E090E0089580E047
:100B700090E0089580E090E008951FBC82E08EBD73
:100B8000089589B7846089BF08950F931F938B01DF
:100B90009C010130110581E028073105F8F0B90109
:100BA000A8011DBC1CBC08B602FEFDCF88B784603E
:100BB00088BF615071094130510581E068077105B6
:100BC00080F7D901C8010197A140B1098827992769
:100BD00021503109081B190B2A0B3B0B011511057C
:100BE00081E02807310530F41195019511091DBDEB
:100BF0000CBD07C0011511052140310511F41DBCC4
:100C00001CBC08B602FEFDCF88B7846088BF1F9168
:100C10000F910895689401C0E8948F929F92CF93AA
:100C2000DF930E941806DF91CF919F908F900895D7
:100C300088249924F401E401B0E49F93AA279A152B
:100C40008B049C04ED05FE05CF05D007A10798F4A1
:100C5000AD2FDC2FCF2FFE2FE92D982C892E982F2A
:100C6000872F762F652F542F432F322F2227B850EE
:100C700031F7BF9127C01B2EBF91BB27220F331F17
:100C8000441F551F661F771F881F991F881C991CBA
:100C9000EE1FFF1FCC1FDD1FAA1FBB1F8A149B0462
:100CA000EC05FD05CE05DF05A007B10748F08A1861
:100CB0009B08EC09FD09CE09DF09A00BB10B2160EF
:100CC0001A94E1F62EF49401AF01BE01CD01000C9F
:100CD00008950F93083090F0982F872F762F652F67
:100CE000542F432F322F22270850F4CF220F331FC7
:100CF000441F551F661F771F881F991F0A95B2F75B
:100D00000F9108952A0D3B1D4C1D5D1D6E1D7F1D0D
:100D1000801F911F08950024A7FD00942A17300515
:100D20004005500560057005800590050895F8940C
:020D3000FFCFF3
:100D32000000010107000000000000001F0A0E0071
:100D420000040A011F00000007041F000404040439
:100D520000000000000000003132333435363738ED
:100D6200392A3023456E7465722050617373776F30
:100D720072643A0057656C636F6D650057726F6EEF
:100D8200672050617373776F7264004E4F206D6FEE
:100D920072652074726965730054727920616761AB
:040DA200696E000076
:00000001FF
